{
  "contractName": "HelloWorld",
  "abi": [
    {
      "inputs": [
        {
          "internalType": "string",
          "name": "name",
          "type": "string"
        }
      ],
      "stateMutability": "nonpayable",
      "type": "constructor"
    },
    {
      "inputs": [],
      "name": "greeting",
      "outputs": [
        {
          "internalType": "string",
          "name": "",
          "type": "string"
        }
      ],
      "stateMutability": "view",
      "type": "function",
      "constant": true
    },
    {
      "inputs": [],
      "name": "getGreeting",
      "outputs": [
        {
          "internalType": "string",
          "name": "",
          "type": "string"
        }
      ],
      "stateMutability": "view",
      "type": "function",
      "constant": true
    }
  ],
  "bytecode": "0x608060405234801562000010575f80fd5b50604051620008ea380380620008ea8339818101604052810190620000369190620001f4565b80604051602001620000499190620002db565b6040516020818303038152906040525f90816200006791906200052d565b505062000611565b5f604051905090565b5f80fd5b5f80fd5b5f80fd5b5f80fd5b5f601f19601f8301169050919050565b7f4e487b71000000000000000000000000000000000000000000000000000000005f52604160045260245ffd5b620000d08262000088565b810181811067ffffffffffffffff82111715620000f257620000f162000098565b5b80604052505050565b5f620001066200006f565b9050620001148282620000c5565b919050565b5f67ffffffffffffffff82111562000136576200013562000098565b5b620001418262000088565b9050602081019050919050565b5f5b838110156200016d57808201518184015260208101905062000150565b5f8484015250505050565b5f6200018e620001888462000119565b620000fb565b905082815260208101848484011115620001ad57620001ac62000084565b5b620001ba8482856200014e565b509392505050565b5f82601f830112620001d957620001d862000080565b5b8151620001eb84826020860162000178565b91505092915050565b5f602082840312156200020c576200020b62000078565b5b5f82015167ffffffffffffffff8111156200022c576200022b6200007c565b5b6200023a84828501620001c2565b91505092915050565b5f81905092915050565b7f48656c6c6f2c20000000000000000000000000000000000000000000000000005f82015250565b5f6200028360078362000243565b915062000290826200024d565b600782019050919050565b5f81519050919050565b5f620002b1826200029b565b620002bd818562000243565b9350620002cf8185602086016200014e565b80840191505092915050565b5f620002e78262000275565b9150620002f58284620002a5565b915081905092915050565b7f4e487b71000000000000000000000000000000000000000000000000000000005f52602260045260245ffd5b5f60028204905060018216806200034557607f821691505b6020821081036200035b576200035a62000300565b5b50919050565b5f819050815f5260205f209050919050565b5f6020601f8301049050919050565b5f82821b905092915050565b5f60088302620003bf7fffffffffffffffffffffffffffffffffffffffffffffffffffffffffffffffff8262000382565b620003cb868362000382565b95508019841693508086168417925050509392505050565b5f819050919050565b5f819050919050565b5f620004156200040f6200040984620003e3565b620003ec565b620003e3565b9050919050565b5f819050919050565b6200043083620003f5565b620004486200043f826200041c565b8484546200038e565b825550505050565b5f90565b6200045e62000450565b6200046b81848462000425565b505050565b5b818110156200049257620004865f8262000454565b60018101905062000471565b5050565b601f821115620004e157620004ab8162000361565b620004b68462000373565b81016020851015620004c6578190505b620004de620004d58562000373565b83018262000470565b50505b505050565b5f82821c905092915050565b5f620005035f1984600802620004e6565b1980831691505092915050565b5f6200051d8383620004f2565b9150826002028217905092915050565b62000538826200029b565b67ffffffffffffffff81111562000554576200055362000098565b5b6200056082546200032d565b6200056d82828562000496565b5f60209050601f831160018114620005a3575f84156200058e578287015190505b6200059a858262000510565b86555062000609565b601f198416620005b38662000361565b5f5b82811015620005dc57848901518255600182019150602085019450602081019050620005b5565b86831015620005fc5784890151620005f8601f891682620004f2565b8355505b6001600288020188555050505b505050505050565b6102cb806200061f5f395ff3fe608060405234801561000f575f80fd5b5060043610610034575f3560e01c8063ef690cc014610038578063fe50cc7214610056575b5f80fd5b610040610074565b60405161004d9190610218565b60405180910390f35b61005e6100ff565b60405161006b9190610218565b60405180910390f35b5f805461008090610265565b80601f01602080910402602001604051908101604052809291908181526020018280546100ac90610265565b80156100f75780601f106100ce576101008083540402835291602001916100f7565b820191905f5260205f20905b8154815290600101906020018083116100da57829003601f168201915b505050505081565b60605f805461010d90610265565b80601f016020809104026020016040519081016040528092919081815260200182805461013990610265565b80156101845780601f1061015b57610100808354040283529160200191610184565b820191905f5260205f20905b81548152906001019060200180831161016757829003601f168201915b5050505050905090565b5f81519050919050565b5f82825260208201905092915050565b5f5b838110156101c55780820151818401526020810190506101aa565b5f8484015250505050565b5f601f19601f8301169050919050565b5f6101ea8261018e565b6101f48185610198565b93506102048185602086016101a8565b61020d816101d0565b840191505092915050565b5f6020820190508181035f83015261023081846101e0565b905092915050565b7f4e487b71000000000000000000000000000000000000000000000000000000005f52602260045260245ffd5b5f600282049050600182168061027c57607f821691505b60208210810361028f5761028e610238565b5b5091905056fea26469706673582212200a68fde639f68cbfa767316837c2967af12a193bd1e98993aeca8256c239518064736f6c63430008150033",
  "immutableReferences": {},
  "source": "// SPDX-License-Identifier: MIT \npragma solidity ^0.8.0;\n\ncontract HelloWorld {\n    //  \n    string public greeting;\n\n    constructor(string memory name) {\n        greeting = string(abi.encodePacked(\"Hello, \", name));\n    }\n    // :  \n    function getGreeting() public view returns (string memory) {\n        return greeting;\n    }\n}\n\ncontract Counter {\n    // unsigned / 256-bit (32bytes) / Fixed size 256bits\n    uint256 public count;\n\n    //  count  get  \n    function get() public view returns (uint256) {\n        return count;\n    }\n\n    // count 1   \n    function inc() public {\n        count += 1;\n    }\n\n    // count 1  \n    function dec() public {\n        count -= 1;\n    }\n} ",
  "sourcePath": "C:\\Coding\\BlockChain\\Project01\\contracts\\HelloWorld.sol",
  "compiler": {
    "name": "solc",
    "version": "0.8.21+commit.d9974bed.Emscripten.clang"
  },
  "schemaVersion": "3.4.16",
  "updatedAt": "2025-07-18T06:38:14.612Z",
  "networkType": "ethereum",
  "devdoc": {
    "kind": "dev",
    "methods": {},
    "version": 1
  },
  "userdoc": {
    "kind": "user",
    "methods": {},
    "version": 1
  }
}