{
  "contractName": "DiaryDapp",
  "abi": [
    {
      "anonymous": false,
      "inputs": [
        {
          "indexed": true,
          "internalType": "address",
          "name": "writer",
          "type": "address"
        },
        {
          "indexed": false,
          "internalType": "uint256",
          "name": "diaryId",
          "type": "uint256"
        }
      ],
      "name": "DiaryWritten",
      "type": "event"
    },
    {
      "inputs": [
        {
          "internalType": "string",
          "name": "_title",
          "type": "string"
        },
        {
          "internalType": "string",
          "name": "_content",
          "type": "string"
        },
        {
          "internalType": "enum DiaryDapp.Mood",
          "name": "_mood",
          "type": "uint8"
        },
        {
          "internalType": "uint256",
          "name": "_date",
          "type": "uint256"
        }
      ],
      "name": "writeDiary",
      "outputs": [],
      "stateMutability": "nonpayable",
      "type": "function"
    },
    {
      "inputs": [],
      "name": "getMyDiaries",
      "outputs": [
        {
          "components": [
            {
              "internalType": "string",
              "name": "title",
              "type": "string"
            },
            {
              "internalType": "string",
              "name": "content",
              "type": "string"
            },
            {
              "internalType": "enum DiaryDapp.Mood",
              "name": "mood",
              "type": "uint8"
            },
            {
              "internalType": "uint256",
              "name": "date",
              "type": "uint256"
            }
          ],
          "internalType": "struct DiaryDapp.Diary[]",
          "name": "",
          "type": "tuple[]"
        }
      ],
      "stateMutability": "view",
      "type": "function",
      "constant": true
    },
    {
      "inputs": [],
      "name": "getCount",
      "outputs": [
        {
          "internalType": "uint256",
          "name": "",
          "type": "uint256"
        }
      ],
      "stateMutability": "view",
      "type": "function",
      "constant": true
    },
    {
      "inputs": [
        {
          "internalType": "enum DiaryDapp.Mood",
          "name": "mood",
          "type": "uint8"
        }
      ],
      "name": "getDiaryByMood",
      "outputs": [
        {
          "components": [
            {
              "internalType": "string",
              "name": "title",
              "type": "string"
            },
            {
              "internalType": "string",
              "name": "content",
              "type": "string"
            },
            {
              "internalType": "enum DiaryDapp.Mood",
              "name": "mood",
              "type": "uint8"
            },
            {
              "internalType": "uint256",
              "name": "date",
              "type": "uint256"
            }
          ],
          "internalType": "struct DiaryDapp.Diary[]",
          "name": "",
          "type": "tuple[]"
        }
      ],
      "stateMutability": "view",
      "type": "function",
      "constant": true
    },
    {
      "inputs": [
        {
          "internalType": "uint256",
          "name": "_index",
          "type": "uint256"
        }
      ],
      "name": "getDiary",
      "outputs": [
        {
          "components": [
            {
              "internalType": "string",
              "name": "title",
              "type": "string"
            },
            {
              "internalType": "string",
              "name": "content",
              "type": "string"
            },
            {
              "internalType": "enum DiaryDapp.Mood",
              "name": "mood",
              "type": "uint8"
            },
            {
              "internalType": "uint256",
              "name": "date",
              "type": "uint256"
            }
          ],
          "internalType": "struct DiaryDapp.Diary",
          "name": "",
          "type": "tuple"
        }
      ],
      "stateMutability": "view",
      "type": "function",
      "constant": true
    },
    {
      "inputs": [
        {
          "internalType": "uint256",
          "name": "startDate",
          "type": "uint256"
        },
        {
          "internalType": "uint256",
          "name": "endDate",
          "type": "uint256"
        }
      ],
      "name": "getDiaryByPeriod",
      "outputs": [
        {
          "components": [
            {
              "internalType": "string",
              "name": "title",
              "type": "string"
            },
            {
              "internalType": "string",
              "name": "content",
              "type": "string"
            },
            {
              "internalType": "enum DiaryDapp.Mood",
              "name": "mood",
              "type": "uint8"
            },
            {
              "internalType": "uint256",
              "name": "date",
              "type": "uint256"
            }
          ],
          "internalType": "struct DiaryDapp.Diary[]",
          "name": "",
          "type": "tuple[]"
        }
      ],
      "stateMutability": "view",
      "type": "function",
      "constant": true
    },
    {
      "inputs": [
        {
          "internalType": "string",
          "name": "keyword",
          "type": "string"
        }
      ],
      "name": "getDiaryByKeyword",
      "outputs": [
        {
          "components": [
            {
              "internalType": "string",
              "name": "title",
              "type": "string"
            },
            {
              "internalType": "string",
              "name": "content",
              "type": "string"
            },
            {
              "internalType": "enum DiaryDapp.Mood",
              "name": "mood",
              "type": "uint8"
            },
            {
              "internalType": "uint256",
              "name": "date",
              "type": "uint256"
            }
          ],
          "internalType": "struct DiaryDapp.Diary[]",
          "name": "",
          "type": "tuple[]"
        }
      ],
      "stateMutability": "view",
      "type": "function",
      "constant": true
    }
  ],
  "bytecode": "0x608060405234801561000f575f80fd5b506124008061001d5f395ff3fe608060405234801561000f575f80fd5b506004361061007b575f3560e01c80634123e0c2116100595780634123e0c21461010f5780637df248e11461013f578063a87d942c1461015d578063ded5fd671461017b5761007b565b80631976802f1461007f5780633b92bb6d146100af5780633c6806b8146100df575b5f80fd5b6100996004803603810190610094919061188b565b610197565b6040516100a69190611af7565b60405180910390f35b6100c960048036038101906100c49190611c43565b61069d565b6040516100d69190611af7565b60405180910390f35b6100f960048036038101906100f49190611c8a565b610ba3565b6040516101069190611d1c565b60405180910390f35b61012960048036038101906101249190611d5f565b610dfb565b6040516101369190611af7565b60405180910390f35b610147611247565b6040516101549190611af7565b60405180910390f35b610165611440565b6040516101729190611d99565b60405180910390f35b61019560048036038101906101909190611e0f565b611486565b005b6060818311156101dc576040517f08c379a00000000000000000000000000000000000000000000000000000000081526004016101d390611f0c565b60405180910390fd5b5f805b5f803373ffffffffffffffffffffffffffffffffffffffff1673ffffffffffffffffffffffffffffffffffffffff1681526020019081526020015f208054905081101561031757845f803373ffffffffffffffffffffffffffffffffffffffff1673ffffffffffffffffffffffffffffffffffffffff1681526020019081526020015f20828154811061027557610274611f2a565b5b905f5260205f20906004020160030154101580156102f05750835f803373ffffffffffffffffffffffffffffffffffffffff1673ffffffffffffffffffffffffffffffffffffffff1681526020019081526020015f2082815481106102dd576102dc611f2a565b5b905f5260205f2090600402016003015411155b1561030457818061030090611f84565b9250505b808061030f90611f84565b9150506101df565b505f8167ffffffffffffffff81111561033357610332611b1f565b5b60405190808252806020026020018201604052801561036c57816020015b61035961180f565b8152602001906001900390816103515790505b5090505f805b5f803373ffffffffffffffffffffffffffffffffffffffff1673ffffffffffffffffffffffffffffffffffffffff1681526020019081526020015f208054905081101561069057865f803373ffffffffffffffffffffffffffffffffffffffff1673ffffffffffffffffffffffffffffffffffffffff1681526020019081526020015f20828154811061040857610407611f2a565b5b905f5260205f20906004020160030154101580156104835750855f803373ffffffffffffffffffffffffffffffffffffffff1673ffffffffffffffffffffffffffffffffffffffff1681526020019081526020015f2082815481106104705761046f611f2a565b5b905f5260205f2090600402016003015411155b1561067d575f803373ffffffffffffffffffffffffffffffffffffffff1673ffffffffffffffffffffffffffffffffffffffff1681526020019081526020015f2081815481106104d6576104d5611f2a565b5b905f5260205f2090600402016040518060800160405290815f820180546104fc90611ff8565b80601f016020809104026020016040519081016040528092919081815260200182805461052890611ff8565b80156105735780601f1061054a57610100808354040283529160200191610573565b820191905f5260205f20905b81548152906001019060200180831161055657829003601f168201915b5050505050815260200160018201805461058c90611ff8565b80601f01602080910402602001604051908101604052809291908181526020018280546105b890611ff8565b80156106035780601f106105da57610100808354040283529160200191610603565b820191905f5260205f20905b8154815290600101906020018083116105e657829003601f168201915b50505050508152602001600282015f9054906101000a900460ff1660038111156106305761062f61197c565b5b60038111156106425761064161197c565b5b815260200160038201548152505083838151811061066357610662611f2a565b5b6020026020010181905250818061067990611f84565b9250505b808061068890611f84565b915050610372565b5081935050505092915050565b60605f805b5f803373ffffffffffffffffffffffffffffffffffffffff1673ffffffffffffffffffffffffffffffffffffffff1681526020019081526020015f20805490508110156107fc576107d55f803373ffffffffffffffffffffffffffffffffffffffff1673ffffffffffffffffffffffffffffffffffffffff1681526020019081526020015f20828154811061073a57610739611f2a565b5b905f5260205f2090600402015f01805461075390611ff8565b80601f016020809104026020016040519081016040528092919081815260200182805461077f90611ff8565b80156107ca5780601f106107a1576101008083540402835291602001916107ca565b820191905f5260205f20905b8154815290600101906020018083116107ad57829003601f168201915b5050505050856116ec565b156107e95781806107e590611f84565b9250505b80806107f490611f84565b9150506106a2565b505f8167ffffffffffffffff81111561081857610817611b1f565b5b60405190808252806020026020018201604052801561085157816020015b61083e61180f565b8152602001906001900390816108365790505b5090505f805b5f803373ffffffffffffffffffffffffffffffffffffffff1673ffffffffffffffffffffffffffffffffffffffff1681526020019081526020015f2080549050811015610b975761098a5f803373ffffffffffffffffffffffffffffffffffffffff1673ffffffffffffffffffffffffffffffffffffffff1681526020019081526020015f2082815481106108ef576108ee611f2a565b5b905f5260205f2090600402015f01805461090890611ff8565b80601f016020809104026020016040519081016040528092919081815260200182805461093490611ff8565b801561097f5780601f106109565761010080835404028352916020019161097f565b820191905f5260205f20905b81548152906001019060200180831161096257829003601f168201915b5050505050876116ec565b15610b84575f803373ffffffffffffffffffffffffffffffffffffffff1673ffffffffffffffffffffffffffffffffffffffff1681526020019081526020015f2081815481106109dd576109dc611f2a565b5b905f5260205f2090600402016040518060800160405290815f82018054610a0390611ff8565b80601f0160208091040260200160405190810160405280929190818152602001828054610a2f90611ff8565b8015610a7a5780601f10610a5157610100808354040283529160200191610a7a565b820191905f5260205f20905b815481529060010190602001808311610a5d57829003601f168201915b50505050508152602001600182018054610a9390611ff8565b80601f0160208091040260200160405190810160405280929190818152602001828054610abf90611ff8565b8015610b0a5780601f10610ae157610100808354040283529160200191610b0a565b820191905f5260205f20905b815481529060010190602001808311610aed57829003601f168201915b50505050508152602001600282015f9054906101000a900460ff166003811115610b3757610b3661197c565b5b6003811115610b4957610b4861197c565b5b8152602001600382015481525050838381518110610b6a57610b69611f2a565b5b60200260200101819052508180610b8090611f84565b9250505b8080610b8f90611f84565b915050610857565b50819350505050919050565b610bab61180f565b5f803373ffffffffffffffffffffffffffffffffffffffff1673ffffffffffffffffffffffffffffffffffffffff1681526020019081526020015f20805490508210610c2c576040517f08c379a0000000000000000000000000000000000000000000000000000000008152600401610c2390612072565b60405180910390fd5b5f803373ffffffffffffffffffffffffffffffffffffffff1673ffffffffffffffffffffffffffffffffffffffff1681526020019081526020015f208281548110610c7a57610c79611f2a565b5b905f5260205f2090600402016040518060800160405290815f82018054610ca090611ff8565b80601f0160208091040260200160405190810160405280929190818152602001828054610ccc90611ff8565b8015610d175780601f10610cee57610100808354040283529160200191610d17565b820191905f5260205f20905b815481529060010190602001808311610cfa57829003601f168201915b50505050508152602001600182018054610d3090611ff8565b80601f0160208091040260200160405190810160405280929190818152602001828054610d5c90611ff8565b8015610da75780601f10610d7e57610100808354040283529160200191610da7565b820191905f5260205f20905b815481529060010190602001808311610d8a57829003601f168201915b50505050508152602001600282015f9054906101000a900460ff166003811115610dd457610dd361197c565b5b6003811115610de657610de561197c565b5b81526020016003820154815250509050919050565b60605f805b5f803373ffffffffffffffffffffffffffffffffffffffff1673ffffffffffffffffffffffffffffffffffffffff1681526020019081526020015f2080549050811015610efd57836003811115610e5a57610e5961197c565b5b5f803373ffffffffffffffffffffffffffffffffffffffff1673ffffffffffffffffffffffffffffffffffffffff1681526020019081526020015f208281548110610ea857610ea7611f2a565b5b905f5260205f2090600402016002015f9054906101000a900460ff166003811115610ed657610ed561197c565b5b03610eea578180610ee690611f84565b9250505b8080610ef590611f84565b915050610e00565b505f8167ffffffffffffffff811115610f1957610f18611b1f565b5b604051908082528060200260200182016040528015610f5257816020015b610f3f61180f565b815260200190600190039081610f375790505b5090505f805b5f803373ffffffffffffffffffffffffffffffffffffffff1673ffffffffffffffffffffffffffffffffffffffff1681526020019081526020015f208054905081101561123b57856003811115610fb257610fb161197c565b5b5f803373ffffffffffffffffffffffffffffffffffffffff1673ffffffffffffffffffffffffffffffffffffffff1681526020019081526020015f20828154811061100057610fff611f2a565b5b905f5260205f2090600402016002015f9054906101000a900460ff16600381111561102e5761102d61197c565b5b03611228575f803373ffffffffffffffffffffffffffffffffffffffff1673ffffffffffffffffffffffffffffffffffffffff1681526020019081526020015f20818154811061108157611080611f2a565b5b905f5260205f2090600402016040518060800160405290815f820180546110a790611ff8565b80601f01602080910402602001604051908101604052809291908181526020018280546110d390611ff8565b801561111e5780601f106110f55761010080835404028352916020019161111e565b820191905f5260205f20905b81548152906001019060200180831161110157829003601f168201915b5050505050815260200160018201805461113790611ff8565b80601f016020809104026020016040519081016040528092919081815260200182805461116390611ff8565b80156111ae5780601f10611185576101008083540402835291602001916111ae565b820191905f5260205f20905b81548152906001019060200180831161119157829003601f168201915b50505050508152602001600282015f9054906101000a900460ff1660038111156111db576111da61197c565b5b60038111156111ed576111ec61197c565b5b815260200160038201548152505083838151811061120e5761120d611f2a565b5b6020026020010181905250818061122490611f84565b9250505b808061123390611f84565b915050610f58565b50819350505050919050565b60605f803373ffffffffffffffffffffffffffffffffffffffff1673ffffffffffffffffffffffffffffffffffffffff1681526020019081526020015f20805480602002602001604051908101604052809291908181526020015f905b82821015611437578382905f5260205f2090600402016040518060800160405290815f820180546112d490611ff8565b80601f016020809104026020016040519081016040528092919081815260200182805461130090611ff8565b801561134b5780601f106113225761010080835404028352916020019161134b565b820191905f5260205f20905b81548152906001019060200180831161132e57829003601f168201915b5050505050815260200160018201805461136490611ff8565b80601f016020809104026020016040519081016040528092919081815260200182805461139090611ff8565b80156113db5780601f106113b2576101008083540402835291602001916113db565b820191905f5260205f20905b8154815290600101906020018083116113be57829003601f168201915b50505050508152602001600282015f9054906101000a900460ff1660038111156114085761140761197c565b5b600381111561141a5761141961197c565b5b8152602001600382015481525050815260200190600101906112a4565b50505050905090565b5f805f3373ffffffffffffffffffffffffffffffffffffffff1673ffffffffffffffffffffffffffffffffffffffff1681526020019081526020015f2080549050905090565b5f86869050116114cb576040517f08c379a00000000000000000000000000000000000000000000000000000000081526004016114c2906120da565b60405180910390fd5b5f803373ffffffffffffffffffffffffffffffffffffffff1673ffffffffffffffffffffffffffffffffffffffff1681526020019081526020015f20604051806080016040528088888080601f0160208091040260200160405190810160405280939291908181526020018383808284375f81840152601f19601f82011690508083019250505050505050815260200186868080601f0160208091040260200160405190810160405280939291908181526020018383808284375f81840152601f19601f8201169050808301925050505050505081526020018460038111156115b7576115b661197c565b5b815260200183815250908060018154018082558091505060019003905f5260205f2090600402015f909190919091505f820151815f0190816115f99190612295565b50602082015181600101908161160f9190612295565b506040820151816002015f6101000a81548160ff0219169083600381111561163a5761163961197c565b5b02179055506060820151816003015550503373ffffffffffffffffffffffffffffffffffffffff167f1f855759a3281e27742d2ffb2b1964c1d073c8aebc5b0538c43635231832199960015f803373ffffffffffffffffffffffffffffffffffffffff1673ffffffffffffffffffffffffffffffffffffffff1681526020019081526020015f20805490506116cf9190612364565b6040516116dc9190611d99565b60405180910390a2505050505050565b5f808390505f839050805182511015611709575f92505050611809565b5f5b815183516117199190612364565b8111611802575f600190505f5b83518110156117da5783818151811061174257611741611f2a565b5b602001015160f81c60f81b7effffffffffffffffffffffffffffffffffffffffffffffffffffffffffffff191685828561177c9190612397565b8151811061178d5761178c611f2a565b5b602001015160f81c60f81b7effffffffffffffffffffffffffffffffffffffffffffffffffffffffffffff1916146117c7575f91506117da565b80806117d290611f84565b915050611726565b5080156117ee576001945050505050611809565b5080806117fa90611f84565b91505061170b565b505f925050505b92915050565b604051806080016040528060608152602001606081526020015f600381111561183b5761183a61197c565b5b81526020015f81525090565b5f604051905090565b5f80fd5b5f80fd5b5f819050919050565b61186a81611858565b8114611874575f80fd5b50565b5f8135905061188581611861565b92915050565b5f80604083850312156118a1576118a0611850565b5b5f6118ae85828601611877565b92505060206118bf85828601611877565b9150509250929050565b5f81519050919050565b5f82825260208201905092915050565b5f819050602082019050919050565b5f81519050919050565b5f82825260208201905092915050565b5f5b8381101561192957808201518184015260208101905061190e565b5f8484015250505050565b5f601f19601f8301169050919050565b5f61194e826118f2565b61195881856118fc565b935061196881856020860161190c565b61197181611934565b840191505092915050565b7f4e487b71000000000000000000000000000000000000000000000000000000005f52602160045260245ffd5b600481106119ba576119b961197c565b5b50565b5f8190506119ca826119a9565b919050565b5f6119d9826119bd565b9050919050565b6119e9816119cf565b82525050565b6119f881611858565b82525050565b5f608083015f8301518482035f860152611a188282611944565b91505060208301518482036020860152611a328282611944565b9150506040830151611a4760408601826119e0565b506060830151611a5a60608601826119ef565b508091505092915050565b5f611a7083836119fe565b905092915050565b5f602082019050919050565b5f611a8e826118c9565b611a9881856118d3565b935083602082028501611aaa856118e3565b805f5b85811015611ae55784840389528151611ac68582611a65565b9450611ad183611a78565b925060208a01995050600181019050611aad565b50829750879550505050505092915050565b5f6020820190508181035f830152611b0f8184611a84565b905092915050565b5f80fd5b5f80fd5b7f4e487b71000000000000000000000000000000000000000000000000000000005f52604160045260245ffd5b611b5582611934565b810181811067ffffffffffffffff82111715611b7457611b73611b1f565b5b80604052505050565b5f611b86611847565b9050611b928282611b4c565b919050565b5f67ffffffffffffffff821115611bb157611bb0611b1f565b5b611bba82611934565b9050602081019050919050565b828183375f83830152505050565b5f611be7611be284611b97565b611b7d565b905082815260208101848484011115611c0357611c02611b1b565b5b611c0e848285611bc7565b509392505050565b5f82601f830112611c2a57611c29611b17565b5b8135611c3a848260208601611bd5565b91505092915050565b5f60208284031215611c5857611c57611850565b5b5f82013567ffffffffffffffff811115611c7557611c74611854565b5b611c8184828501611c16565b91505092915050565b5f60208284031215611c9f57611c9e611850565b5b5f611cac84828501611877565b91505092915050565b5f608083015f8301518482035f860152611ccf8282611944565b91505060208301518482036020860152611ce98282611944565b9150506040830151611cfe60408601826119e0565b506060830151611d1160608601826119ef565b508091505092915050565b5f6020820190508181035f830152611d348184611cb5565b905092915050565b60048110611d48575f80fd5b50565b5f81359050611d5981611d3c565b92915050565b5f60208284031215611d7457611d73611850565b5b5f611d8184828501611d4b565b91505092915050565b611d9381611858565b82525050565b5f602082019050611dac5f830184611d8a565b92915050565b5f80fd5b5f80fd5b5f8083601f840112611dcf57611dce611b17565b5b8235905067ffffffffffffffff811115611dec57611deb611db2565b5b602083019150836001820283011115611e0857611e07611db6565b5b9250929050565b5f805f805f8060808789031215611e2957611e28611850565b5b5f87013567ffffffffffffffff811115611e4657611e45611854565b5b611e5289828a01611dba565b9650965050602087013567ffffffffffffffff811115611e7557611e74611854565b5b611e8189828a01611dba565b94509450506040611e9489828a01611d4b565b9250506060611ea589828a01611877565b9150509295509295509295565b5f82825260208201905092915050565b7f496e76616c696420646174652072616e676500000000000000000000000000005f82015250565b5f611ef6601283611eb2565b9150611f0182611ec2565b602082019050919050565b5f6020820190508181035f830152611f2381611eea565b9050919050565b7f4e487b71000000000000000000000000000000000000000000000000000000005f52603260045260245ffd5b7f4e487b71000000000000000000000000000000000000000000000000000000005f52601160045260245ffd5b5f611f8e82611858565b91507fffffffffffffffffffffffffffffffffffffffffffffffffffffffffffffffff8203611fc057611fbf611f57565b5b600182019050919050565b7f4e487b71000000000000000000000000000000000000000000000000000000005f52602260045260245ffd5b5f600282049050600182168061200f57607f821691505b60208210810361202257612021611fcb565b5b50919050565b7f496e76616c696420696e646578000000000000000000000000000000000000005f82015250565b5f61205c600d83611eb2565b915061206782612028565b602082019050919050565b5f6020820190508181035f83015261208981612050565b9050919050565b7f5469746c652063616e6e6f7420626520656d70747900000000000000000000005f82015250565b5f6120c4601583611eb2565b91506120cf82612090565b602082019050919050565b5f6020820190508181035f8301526120f1816120b8565b9050919050565b5f819050815f5260205f209050919050565b5f6020601f8301049050919050565b5f82821b905092915050565b5f600883026121547fffffffffffffffffffffffffffffffffffffffffffffffffffffffffffffffff82612119565b61215e8683612119565b95508019841693508086168417925050509392505050565b5f819050919050565b5f61219961219461218f84611858565b612176565b611858565b9050919050565b5f819050919050565b6121b28361217f565b6121c66121be826121a0565b848454612125565b825550505050565b5f90565b6121da6121ce565b6121e58184846121a9565b505050565b5b81811015612208576121fd5f826121d2565b6001810190506121eb565b5050565b601f82111561224d5761221e816120f8565b6122278461210a565b81016020851015612236578190505b61224a6122428561210a565b8301826121ea565b50505b505050565b5f82821c905092915050565b5f61226d5f1984600802612252565b1980831691505092915050565b5f612285838361225e565b9150826002028217905092915050565b61229e826118f2565b67ffffffffffffffff8111156122b7576122b6611b1f565b5b6122c18254611ff8565b6122cc82828561220c565b5f60209050601f8311600181146122fd575f84156122eb578287015190505b6122f5858261227a565b86555061235c565b601f19841661230b866120f8565b5f5b828110156123325784890151825560018201915060208501945060208101905061230d565b8683101561234f578489015161234b601f89168261225e565b8355505b6001600288020188555050505b505050505050565b5f61236e82611858565b915061237983611858565b925082820390508181111561239157612390611f57565b5b92915050565b5f6123a182611858565b91506123ac83611858565b92508282019050808211156123c4576123c3611f57565b5b9291505056fea2646970667358221220317e88f58624604d655f43700d2ac0b9bc3bedab71c69d3416a30a80d91b425764736f6c63430008150033",
  "immutableReferences": {},
  "source": "// SPDX-License-Identifier: MIT\r\npragma solidity ^0.8.0;\r\n\r\ncontract DiaryDapp {\r\n    enum Mood { Happy, Sad, Angry, Neutral } //enum for mood types\r\n\r\n    struct Diary { // \r\n        string title;\r\n        string content;\r\n        Mood mood;\r\n        uint256 date; // timestamp (: block.timestamp)\r\n    }\r\n\r\n    mapping(address => Diary[]) private diaries; //     ,  diaries   , Diary   \r\n\r\n    event DiaryWritten(address indexed writer, uint256 diaryId); //indexed?        \r\n\r\n    //   \r\n    function writeDiary(\r\n        string calldata _title, //calldata    ,      \r\n        string calldata _content,\r\n        Mood _mood,\r\n        uint256 _date\r\n    ) external { // external    \r\n        require(bytes(_title).length > 0, \"Title cannot be empty\");\r\n        diaries[msg.sender].push( //diaries [] =   \r\n            Diary({\r\n                title: _title, //  \r\n                content: _content,\r\n                mood: _mood,\r\n                date: _date\r\n            })\r\n        );\r\n        emit DiaryWritten(msg.sender, diaries[msg.sender].length - 1); //Solidity (Event)  ,  \r\n    }\r\n\r\n    //     \r\n    function getMyDiaries() external view returns (Diary[] memory) { //view     \r\n        return diaries[msg.sender];\r\n    }\r\n\r\n    //     \r\n    function getCount() external view returns (uint256) {\r\n        return diaries[msg.sender].length; //    \r\n    }\r\n\r\n    //     \r\n    function getDiaryByMood(Mood mood) external view returns (Diary[] memory) {\r\n\r\n        uint256 count = 0;\r\n        for (uint256 i = 0; i < diaries[msg.sender].length; i++) {\r\n            if (diaries[msg.sender][i].mood == mood) {\r\n                count++;\r\n            }\r\n        }\r\n\r\n        Diary [] memory filteredDiaries = new Diary[](count);\r\n        uint256 j = 0;\r\n        for (uint256 i = 0; i < diaries[msg.sender].length; i++) {\r\n            if (diaries[msg.sender][i].mood == mood){\r\n                filteredDiaries[j] = diaries[msg.sender][i];\r\n                j++;\r\n            }\r\n        }\r\n        return filteredDiaries; //   \r\n    }\r\n\r\n\r\n    //     ()\r\n    function getDiary(uint256 _index) external view returns (Diary memory) { //_index  \r\n        require(_index < diaries[msg.sender].length, \"Invalid index\");\r\n        return diaries[msg.sender][_index];\r\n    }\r\n\r\n    //      \r\n    function getDiaryByPeriod(uint256 startDate, uint256 endDate) external view returns (Diary[] memory) {\r\n        require(startDate <= endDate, \"Invalid date range\");\r\n\r\n        uint256 count = 0;\r\n        for (uint256 i = 0; i < diaries[msg.sender].length; i++) {\r\n            if (diaries[msg.sender][i].date >= startDate && diaries[msg.sender][i].date <= endDate) {\r\n                count++;\r\n            }\r\n        }\r\n\r\n        Diary[] memory filteredDiaries = new Diary[](count);\r\n\r\n        uint256 j = 0;\r\n        for (uint256 i = 0; i < diaries[msg.sender].length; i++) {\r\n            if (diaries[msg.sender][i].date >= startDate && diaries[msg.sender][i].date <= endDate) {\r\n                filteredDiaries[j] = diaries[msg.sender][i];\r\n                j++;\r\n            }\r\n        }\r\n        return filteredDiaries;\r\n    }\r\n\r\n    //     \r\n    function getDiaryByKeyword(string memory keyword) external view returns (Diary[] memory) {\r\n        uint256 count = 0;\r\n        for (uint256 i = 0; i < diaries[msg.sender].length; i++) {\r\n            if (containsKeyword(diaries[msg.sender][i].title, keyword)) {\r\n                count++;\r\n            }\r\n        }\r\n\r\n        Diary[] memory filteredDiaries = new Diary[](count);\r\n\r\n        uint256 j = 0;\r\n        for (uint256 i = 0; i < diaries[msg.sender].length; i++) {\r\n            if (containsKeyword(diaries[msg.sender][i].title, keyword)) {\r\n                filteredDiaries[j] = diaries[msg.sender][i];\r\n                j++;\r\n            }\r\n        }\r\n        return filteredDiaries;\r\n    }\r\n\r\n    //       \r\n    function containsKeyword(string memory str, string memory keyword) internal pure returns (bool) {\r\n        bytes memory strBytes = bytes (str);\r\n        bytes memory keywordBytes = bytes(keyword);\r\n        if (strBytes.length < keywordBytes.length) {\r\n            return false; //    false\r\n        }\r\n\r\n        for (uint256 i = 0; i <= strBytes.length - keywordBytes.length; i++) {\r\n            bool found = true;\r\n            for (uint256 j = 0; j < keywordBytes.length; j++) {\r\n                if (strBytes[i + j] != keywordBytes[j]) {\r\n                    found = false;\r\n                    break;\r\n                }\r\n            }\r\n            if (found) {\r\n                return true;\r\n            }\r\n        }\r\n        return false;\r\n    }\r\n}\r\n",
  "sourcePath": "C:\\Coding\\BlockChain\\Project01\\contracts\\BAY1.sol",
  "compiler": {
    "name": "solc",
    "version": "0.8.21+commit.d9974bed.Emscripten.clang"
  },
  "schemaVersion": "3.4.16",
  "updatedAt": "2025-07-18T06:38:14.593Z",
  "networkType": "ethereum",
  "devdoc": {
    "kind": "dev",
    "methods": {},
    "version": 1
  },
  "userdoc": {
    "kind": "user",
    "methods": {},
    "version": 1
  }
}